{
  "_format": "hh-sol-artifact-1",
  "contractName": "AllowanceCrowdsale",
  "sourceName": "contracts/crowdsale/AllowanceCrowdsale.sol",
  "abi": [
    {
      "inputs": [
        {
          "internalType": "address",
          "name": "_tokenContract",
          "type": "address"
        },
        {
          "internalType": "address payable",
          "name": "_treasuryWallet",
          "type": "address"
        },
        {
          "internalType": "address",
          "name": "_tokenHoldingWallet",
          "type": "address"
        },
        {
          "internalType": "address",
          "name": "_membershipContract",
          "type": "address"
        },
        {
          "internalType": "address[]",
          "name": "_acceptedStablecoins",
          "type": "address[]"
        }
      ],
      "stateMutability": "nonpayable",
      "type": "constructor"
    },
    {
      "anonymous": false,
      "inputs": [
        {
          "indexed": true,
          "internalType": "address",
          "name": "previousOwner",
          "type": "address"
        },
        {
          "indexed": true,
          "internalType": "address",
          "name": "newOwner",
          "type": "address"
        }
      ],
      "name": "OwnershipTransferred",
      "type": "event"
    },
    {
      "inputs": [
        {
          "internalType": "address",
          "name": "",
          "type": "address"
        }
      ],
      "name": "_claimed",
      "outputs": [
        {
          "internalType": "bool",
          "name": "",
          "type": "bool"
        }
      ],
      "stateMutability": "view",
      "type": "function"
    },
    {
      "inputs": [
        {
          "internalType": "uint256",
          "name": "",
          "type": "uint256"
        }
      ],
      "name": "acceptedStablecoins",
      "outputs": [
        {
          "internalType": "address",
          "name": "",
          "type": "address"
        }
      ],
      "stateMutability": "view",
      "type": "function"
    },
    {
      "inputs": [
        {
          "internalType": "uint256",
          "name": "numNFTs",
          "type": "uint256"
        },
        {
          "internalType": "uint8",
          "name": "whitelistIndex",
          "type": "uint8"
        },
        {
          "internalType": "bytes32[]",
          "name": "proof",
          "type": "bytes32[]"
        },
        {
          "internalType": "bool",
          "name": "payWithEth",
          "type": "bool"
        },
        {
          "internalType": "address",
          "name": "_stablecoinAddress",
          "type": "address"
        }
      ],
      "name": "buyNFTs",
      "outputs": [],
      "stateMutability": "payable",
      "type": "function"
    },
    {
      "inputs": [
        {
          "internalType": "uint256",
          "name": "quantity",
          "type": "uint256"
        },
        {
          "internalType": "uint8",
          "name": "whitelistIndex",
          "type": "uint8"
        },
        {
          "internalType": "bytes32[]",
          "name": "proof",
          "type": "bytes32[]"
        },
        {
          "internalType": "bool",
          "name": "payWithEth",
          "type": "bool"
        },
        {
          "internalType": "address",
          "name": "_stablecoinAddress",
          "type": "address"
        }
      ],
      "name": "buyTokens",
      "outputs": [],
      "stateMutability": "payable",
      "type": "function"
    },
    {
      "inputs": [],
      "name": "ethRate",
      "outputs": [
        {
          "internalType": "uint256",
          "name": "",
          "type": "uint256"
        }
      ],
      "stateMutability": "view",
      "type": "function"
    },
    {
      "inputs": [],
      "name": "isActive",
      "outputs": [
        {
          "internalType": "bool",
          "name": "",
          "type": "bool"
        }
      ],
      "stateMutability": "view",
      "type": "function"
    },
    {
      "inputs": [],
      "name": "membershipContract",
      "outputs": [
        {
          "internalType": "address",
          "name": "",
          "type": "address"
        }
      ],
      "stateMutability": "view",
      "type": "function"
    },
    {
      "inputs": [],
      "name": "owner",
      "outputs": [
        {
          "internalType": "address",
          "name": "",
          "type": "address"
        }
      ],
      "stateMutability": "view",
      "type": "function"
    },
    {
      "inputs": [],
      "name": "renounceOwnership",
      "outputs": [],
      "stateMutability": "nonpayable",
      "type": "function"
    },
    {
      "inputs": [
        {
          "internalType": "uint256",
          "name": "_stablecoinRate",
          "type": "uint256"
        },
        {
          "internalType": "uint256",
          "name": "_ethRate",
          "type": "uint256"
        }
      ],
      "name": "setRates",
      "outputs": [],
      "stateMutability": "nonpayable",
      "type": "function"
    },
    {
      "inputs": [],
      "name": "stablecoinRate",
      "outputs": [
        {
          "internalType": "uint256",
          "name": "",
          "type": "uint256"
        }
      ],
      "stateMutability": "view",
      "type": "function"
    },
    {
      "inputs": [
        {
          "internalType": "enum ERC721MembershipUpgradeable.TierCode[]",
          "name": "tierCodes",
          "type": "uint8[]"
        },
        {
          "internalType": "uint256[]",
          "name": "allocations",
          "type": "uint256[]"
        },
        {
          "internalType": "bytes32[]",
          "name": "merkleRoots",
          "type": "bytes32[]"
        }
      ],
      "name": "startSale",
      "outputs": [],
      "stateMutability": "nonpayable",
      "type": "function"
    },
    {
      "inputs": [],
      "name": "stopSale",
      "outputs": [],
      "stateMutability": "nonpayable",
      "type": "function"
    },
    {
      "inputs": [],
      "name": "tokenContract",
      "outputs": [
        {
          "internalType": "address",
          "name": "",
          "type": "address"
        }
      ],
      "stateMutability": "view",
      "type": "function"
    },
    {
      "inputs": [],
      "name": "tokenHoldingWallet",
      "outputs": [
        {
          "internalType": "address",
          "name": "",
          "type": "address"
        }
      ],
      "stateMutability": "view",
      "type": "function"
    },
    {
      "inputs": [
        {
          "internalType": "address",
          "name": "newOwner",
          "type": "address"
        }
      ],
      "name": "transferOwnership",
      "outputs": [],
      "stateMutability": "nonpayable",
      "type": "function"
    },
    {
      "inputs": [],
      "name": "treasuryWallet",
      "outputs": [
        {
          "internalType": "address payable",
          "name": "",
          "type": "address"
        }
      ],
      "stateMutability": "view",
      "type": "function"
    }
  ],
  "bytecode": "0x60806040523480156200001157600080fd5b5060405162001c6838038062001c68833981016040819052620000349162000205565b6200003f3362000122565b6001600160a01b038316620000ad5760405162461bcd60e51b815260206004820152602a60248201527f63726f776473616c653a746f6b656e2077616c6c657420697320746865207a65604482015269726f206164647265737360b01b606482015260840160405180910390fd5b6002805460ff19169055600880546001600160a01b038088166001600160a01b0319928316179092556005805487841690831617905560068054868416908316179055600980549285169290911691909117905580516200011690600790602084019062000172565b50505050505062000362565b600080546001600160a01b038381166001600160a01b0319831681178455604051919092169283917f8be0079c531659141344cd1fd0a4f28419497f9722a3daafe3b4186f6b6457e09190a35050565b828054828255906000526020600020908101928215620001ca579160200282015b82811115620001ca57825182546001600160a01b0319166001600160a01b0390911617825560209092019160019091019062000193565b50620001d8929150620001dc565b5090565b5b80821115620001d85760008155600101620001dd565b8051620002008162000349565b919050565b600080600080600060a086880312156200021d578081fd5b85516200022a8162000349565b809550506020808701516200023f8162000349565b6040880151909550620002528162000349565b6060880151909450620002658162000349565b60808801519093506001600160401b038082111562000282578384fd5b818901915089601f83011262000296578384fd5b815181811115620002ab57620002ab62000333565b8060051b604051601f19603f83011681018181108582111715620002d357620002d362000333565b604052828152858101935084860182860187018e1015620002f2578788fd5b8795505b838610156200031f576200030a81620001f3565b855260019590950194938601938601620002f6565b508096505050505050509295509295909350565b634e487b7160e01b600052604160045260246000fd5b6001600160a01b03811681146200035f57600080fd5b50565b6118f680620003726000396000f3fe60806040526004361061010e5760003560e01c8063a1031611116100a5578063d2d93f9011610074578063e36b0b3711610059578063e36b0b37146102e5578063f1ba1114146102fa578063f2fde38b1461031a57600080fd5b8063d2d93f901461029f578063dd896a1c146102b557600080fd5b8063a103161114610233578063ac6af28014610253578063ad6dd69714610279578063c729f3691461028c57600080fd5b80635e4f9bab116100e15780635e4f9bab146101ba5780636acdabbf146101da578063715018a6146101fe5780638da5cb5b1461021557600080fd5b806322f3e2d4146101135780634626402b1461014257806351ec8d1e1461017a57806355a373d61461019a575b600080fd5b34801561011f57600080fd5b5060025461012d9060ff1681565b60405190151581526020015b60405180910390f35b34801561014e57600080fd5b50600554610162906001600160a01b031681565b6040516001600160a01b039091168152602001610139565b34801561018657600080fd5b50600954610162906001600160a01b031681565b3480156101a657600080fd5b50600854610162906001600160a01b031681565b3480156101c657600080fd5b506101626101d5366004611673565b61033a565b3480156101e657600080fd5b506101f060035481565b604051908152602001610139565b34801561020a57600080fd5b50610213610364565b005b34801561022157600080fd5b506000546001600160a01b0316610162565b34801561023f57600080fd5b50600654610162906001600160a01b031681565b34801561025f57600080fd5b5061021361026e3660046116a3565b600391909155600455565b6102136102873660046116c4565b6103cf565b61021361029a3660046116c4565b61065a565b3480156102ab57600080fd5b506101f060045481565b3480156102c157600080fd5b5061012d6102d0366004611588565b60016020526000908152604090205460ff1681565b3480156102f157600080fd5b5061021361084c565b34801561030657600080fd5b506102136103153660046115a2565b61091b565b34801561032657600080fd5b50610213610335366004611588565b610bc1565b6007818154811061034a57600080fd5b6000918252602090912001546001600160a01b0316905081565b6000546001600160a01b031633146103c35760405162461bcd60e51b815260206004820181905260248201527f4f776e61626c653a2063616c6c6572206973206e6f7420746865206f776e657260448201526064015b60405180910390fd5b6103cd6000610c9c565b565b60025460ff166104215760405162461bcd60e51b815260206004820152601260248201527f63726f776473616c653a6e6f74206f70656e000000000000000000000000000060448201526064016103ba565b3360009081526001602052604090205460ff16156104975760405162461bcd60e51b815260206004820152602d60248201527f63726f776473616c653a757365722068617320616c726561647920636c61696d60448201526c32b21030b63637b1b0ba34b7b760991b60648201526084016103ba565b6000600a8660ff16815481106104bd57634e487b7160e01b600052603260045260246000fd5b6000918252602082206001600390920201908101546009548254604051635586402d60e01b81529395509193926001600160a01b0390911691635586402d9161050c9160ff1690600401611786565b60206040518083038186803b15801561052457600080fd5b505afa158015610538573d6000803e3d6000fd5b505050506040513d601f19601f8201168201806040525081019061055c919061168b565b9050600061056a828b6117f6565b905061057e8382848b8b8960020154610d04565b610589868287610e80565b60005b8a8110156106305760095485546006546040517f2444fdee0000000000000000000000000000000000000000000000000000000081526001600160a01b0393841693632444fdee936105eb9360ff909116929116903390600401611794565b600060405180830381600087803b15801561060557600080fd5b505af1158015610619573d6000803e3d6000fd5b50505050808061062890611841565b91505061058c565b5050336000908152600160208190526040909120805460ff19169091179055505050505050505050565b60025460ff166106ac5760405162461bcd60e51b815260206004820152601260248201527f63726f776473616c653a6e6f74206f70656e000000000000000000000000000060448201526064016103ba565b3360009081526001602052604090205460ff16156107225760405162461bcd60e51b815260206004820152602d60248201527f63726f776473616c653a757365722068617320616c726561647920636c61696d60448201526c32b21030b63637b1b0ba34b7b760991b60648201526084016103ba565b6000600a8660ff168154811061074857634e487b7160e01b600052603260045260246000fd5b6000918252602082206001600390920201908101546009548254604051635586402d60e01b81529395509193926001600160a01b0390911691635586402d916107979160ff1690600401611786565b60206040518083038186803b1580156107af57600080fd5b505afa1580156107c3573d6000803e3d6000fd5b505050506040513d601f19601f820116820180604052508101906107e7919061168b565b90506107fb828a838a8a8860020154610d04565b610806858a86610e80565b600654600854610824916001600160a01b039182169116338c611067565b5050336000908152600160208190526040909120805460ff1916909117905550505050505050565b6000546001600160a01b031633146108a65760405162461bcd60e51b815260206004820181905260248201527f4f776e61626c653a2063616c6c6572206973206e6f7420746865206f776e657260448201526064016103ba565b6002805460ff1916905560005b600a5460ff8216101561091857600a8160ff16815481106108e457634e487b7160e01b600052603260045260246000fd5b600091825260208220600390910201805460ff191681556001810182905560020155806109108161185c565b9150506108b3565b50565b6000546001600160a01b031633146109755760405162461bcd60e51b815260206004820181905260248201527f4f776e61626c653a2063616c6c6572206973206e6f7420746865206f776e657260448201526064016103ba565b848314801561098357508281145b6109f55760405162461bcd60e51b815260206004820152603560248201527f63726f776473616c653a77686974656c69737473206172726179732073686f7560448201527f6c64206265206f6620657175616c206c656e677468000000000000000000000060648201526084016103ba565b84610a685760405162461bcd60e51b815260206004820152603060248201527f63726f776473616c653a77686974656c69737473206172726179732e6c656e6760448201527f74682073686f756c64206265203e20300000000000000000000000000000000060648201526084016103ba565b6002805460ff1916600117905560005b85811015610bb857600a6040518060600160405280898985818110610aad57634e487b7160e01b600052603260045260246000fd5b9050602002016020810190610ac29190611654565b6002811115610ae157634e487b7160e01b600052602160045260246000fd5b8152602001878785818110610b0657634e487b7160e01b600052603260045260246000fd5b905060200201358152602001858585818110610b3257634e487b7160e01b600052603260045260246000fd5b602090810292909201359092528354600181810186556000958652919094208351600390950201805493949093909250839160ff1990911690836002811115610b8b57634e487b7160e01b600052602160045260246000fd5b02179055506020820151600182015560409091015160029091015580610bb081611841565b915050610a78565b50505050505050565b6000546001600160a01b03163314610c1b5760405162461bcd60e51b815260206004820181905260248201527f4f776e61626c653a2063616c6c6572206973206e6f7420746865206f776e657260448201526064016103ba565b6001600160a01b038116610c975760405162461bcd60e51b815260206004820152602660248201527f4f776e61626c653a206e6577206f776e657220697320746865207a65726f206160448201527f646472657373000000000000000000000000000000000000000000000000000060648201526084016103ba565b610918815b600080546001600160a01b038381167fffffffffffffffffffffffff0000000000000000000000000000000000000000831681178455604051919092169283917f8be0079c531659141344cd1fd0a4f28419497f9722a3daafe3b4186f6b6457e09190a35050565b610d0e858761187c565b158015610d225750610d20848661187c565b155b610dba5760405162461bcd60e51b815260206004820152604960248201527f63726f776473616c653a6d75737420707572636861736520746f6b656e73206960448201527f6e206469736372657465207175616e746974696573206261736564206f6e206160648201527f6c6c6f636174696f6e0000000000000000000000000000000000000000000000608482015260a4016103ba565b610e2c838380806020026020016040519081016040528093929190818152602001838360200280828437600092019190915250506040516bffffffffffffffffffffffff193360601b1660208201528592506034019050604051602081830303815290604052805190602001206110ef565b610e785760405162461bcd60e51b815260206004820152600d60248201527f496e76616c69642070726f6f660000000000000000000000000000000000000060448201526064016103ba565b505050505050565b82610fac57600060035411610ed75760405162461bcd60e51b815260206004820152601d60248201527f63726f776473616c653a737461626c65636f696e52617465203c3d203000000060448201526064016103ba565b610ee081611107565b6005546003546001600160a01b03928316926323b872dd923392911690610f0790876117f6565b6040517fffffffff0000000000000000000000000000000000000000000000000000000060e086901b1681526001600160a01b0393841660048201529290911660248301526044820152606401602060405180830381600087803b158015610f6e57600080fd5b505af1158015610f82573d6000803e3d6000fd5b505050506040513d601f19601f82011682018060405250810190610fa69190611638565b50505050565b600060045411610ffe5760405162461bcd60e51b815260206004820152601660248201527f63726f776473616c653a65746852617465203c3d20300000000000000000000060448201526064016103ba565b60045461100b90836117f6565b34101561105a5760405162461bcd60e51b815260206004820152601860248201527f63726f776473616c653a6e6f7420656e6f75676820657468000000000000000060448201526064016103ba565b6110626111e8565b505050565b604080516001600160a01b0385811660248301528416604482015260648082018490528251808303909101815260849091019091526020810180517bffffffffffffffffffffffffffffffffffffffffffffffffffffffff167f23b872dd00000000000000000000000000000000000000000000000000000000179052610fa6908590611221565b6000826110fc8584611306565b1490505b9392505050565b600080805b60075481101561116d576007818154811061113757634e487b7160e01b600052603260045260246000fd5b6000918252602090912001546001600160a01b038581169116141561115b57600191505b8061116581611841565b91505061110c565b50806111e15760405162461bcd60e51b815260206004820152602260248201527f63726f776473616c653a737461626c65636f696e206e6f7420737570706f727460448201527f656400000000000000000000000000000000000000000000000000000000000060648201526084016103ba565b5090919050565b6005546040516001600160a01b03909116903480156108fc02916000818181858888f19350505050158015610918573d6000803e3d6000fd5b6000611276826040518060400160405280602081526020017f5361666545524332303a206c6f772d6c6576656c2063616c6c206661696c6564815250856001600160a01b031661138a9092919063ffffffff16565b80519091501561106257808060200190518101906112949190611638565b6110625760405162461bcd60e51b815260206004820152602a60248201527f5361666545524332303a204552433230206f7065726174696f6e20646964206e60448201527f6f7420737563636565640000000000000000000000000000000000000000000060648201526084016103ba565b600081815b845181101561138057600085828151811061133657634e487b7160e01b600052603260045260246000fd5b6020026020010151905080831161135c576000838152602082905260409020925061136d565b600081815260208490526040902092505b508061137881611841565b91505061130b565b5090505b92915050565b606061139984846000856113a1565b949350505050565b6060824710156114195760405162461bcd60e51b815260206004820152602660248201527f416464726573733a20696e73756666696369656e742062616c616e636520666f60448201527f722063616c6c000000000000000000000000000000000000000000000000000060648201526084016103ba565b6001600160a01b0385163b6114705760405162461bcd60e51b815260206004820152601d60248201527f416464726573733a2063616c6c20746f206e6f6e2d636f6e747261637400000060448201526064016103ba565b600080866001600160a01b0316858760405161148c919061176a565b60006040518083038185875af1925050503d80600081146114c9576040519150601f19603f3d011682016040523d82523d6000602084013e6114ce565b606091505b50915091506114de8282866114e9565b979650505050505050565b606083156114f8575081611100565b8251156115085782518084602001fd5b8160405162461bcd60e51b81526004016103ba91906117c3565b80356001600160a01b038116811461153957600080fd5b919050565b60008083601f84011261154f578182fd5b50813567ffffffffffffffff811115611566578182fd5b6020830191508360208260051b850101111561158157600080fd5b9250929050565b600060208284031215611599578081fd5b61110082611522565b600080600080600080606087890312156115ba578182fd5b863567ffffffffffffffff808211156115d1578384fd5b6115dd8a838b0161153e565b909850965060208901359150808211156115f5578384fd5b6116018a838b0161153e565b90965094506040890135915080821115611619578384fd5b5061162689828a0161153e565b979a9699509497509295939492505050565b600060208284031215611649578081fd5b8151611100816118b2565b600060208284031215611665578081fd5b813560038110611100578182fd5b600060208284031215611684578081fd5b5035919050565b60006020828403121561169c578081fd5b5051919050565b600080604083850312156116b5578182fd5b50508035926020909101359150565b60008060008060008060a087890312156116dc578182fd5b86359550602087013560ff811681146116f3578283fd5b9450604087013567ffffffffffffffff81111561170e578283fd5b61171a89828a0161153e565b909550935050606087013561172e816118b2565b915061173c60808801611522565b90509295509295509295565b6003811061176657634e487b7160e01b600052602160045260246000fd5b9052565b6000825161177c818460208701611815565b9190910192915050565b602081016113848284611748565b606081016117a28286611748565b6001600160a01b038085166020840152808416604084015250949350505050565b60208152600082518060208401526117e2816040850160208701611815565b601f01601f19169190910160400192915050565b60008160001904831182151516156118105761181061189c565b500290565b60005b83811015611830578181015183820152602001611818565b83811115610fa65750506000910152565b60006000198214156118555761185561189c565b5060010190565b600060ff821660ff8114156118735761187361189c565b60010192915050565b60008261189757634e487b7160e01b81526012600452602481fd5b500690565b634e487b7160e01b600052601160045260246000fd5b801515811461091857600080fdfea2646970667358221220fd2da118deaea081d40f5402985f66b2383fa90e23e0b59c9e81b7d6e27e833064736f6c63430008040033",
  "linkReferences": {},
  "deployedLinkReferences": {}
}